:100000000C943B010C946C010C946C010C946C01ED
:100010000C946C010C946C010C946C010C946C01AC
:100020000C946C010C946C010C946C010C946C019C
:100030000C946C010C946C010C946C010C946C018C
:100040000C946C010C946C010C946C010C946C017C
:100050000C946C010C946C010C946C010C9438079A
:100060000C946C010C9402070C94D8060C946C014F
:100070000C946C010C946C010C946C010C946C014C
:100080000C946C010C946C010C946C010C946C013C
:100090000C946C010C946C010C946C010C946C012C
:1000A0000C946C010C946C010C946C010C946C011C
:1000B0000C946C010C946C010C946C010C946C010C
:1000C0000C946C010C946C010C946C010C946C01FC
:1000D0000C946C010C946C010C946C010C946C01EC
:1000E0000C946C010C9493030C94AA010C94970348
:1000F0000C946E010C945C030C9481030C947B03B0
:100100000C9477030C94A0020C949D030C94680249
:100110000C9482070C9481060C948F030C94710349
:100120000C9466030C9485030C94A1030C946A034D
:100130000C946E030C9462030C94ED020C94BE01BB
:100140000C9489030C949C030C945B040C949B0109
:100150000C945C0400002100240027002A002D00DC
:100160003000330001010000040107010A01000012
:100170002200250028002B002E003100340002014F
:100180000000050108010B010000200023002600EB
:1001900029002C002F00320000010000030106019D
:1001A00009010505050507050808080802020202FD
:1001B0000A0A080804040404010101010101010103
:1001C0000303030303030303040707070C0C0C0CCE
:1001D0000C0C0C0C020202020606060606060606B7
:1001E0000B0B0B0B0B0B0B0B010210202008081044
:1001F0002040102040800201020108040201010297
:10020000040810204080804020100804020180046F
:1002100002018040201008040201080402010102CA
:1002200004081020408001020408102040800000D3
:100230000A0B02090C0D0E08070304010000000060
:1002400000000000000000000000000000000000AE
:10025000000000000000000000001211100000006B
:10026000000000000000000000000000000000008E
:1002700000000000820711241FBECFEFD1E2DEBFD5
:10028000CDBF00E00CBF25E0ACE6B4E001C01D929C
:10029000A833B207E1F714E0A0E0B2E0E8EDFBE13B
:1002A00000E00BBF02C007900D92AC36B107D9F742
:1002B00011E0CBE3D1E000E006C021970109802FD7
:1002C000FE010E94CC0BCA33D10780E00807A9F7D2
:1002D0000E94D1070C94EA0D0C940000AF92BF92DB
:1002E000CF92DF92EF92FF920F931F93CF93DF9302
:1002F0006C017B018B01040F151FEB015E01AE1831
:10030000BF08C017D10759F06991D601ED91FC9152
:100310000190F081E02DC6011995892B79F7C5016F
:10032000DF91CF911F910F91FF90EF90DF90CF90D1
:10033000BF90AF900895FC01538D448D252F30E080
:10034000842F90E0821B930B541710F0CF960895E2
:1003500001970895FC01918D828D981761F0A28D0F
:10036000AE0FBF2FB11D5D968C91928D9F5F9F73D5
:10037000928F90E008958FEF9FEF0895FC01918D8B
:10038000828D981731F0828DE80FF11D858D90E0F8
:1003900008958FEF9FEF08952FB7F89480917B0415
:1003A00090917C04A0917D04B0917E042FBF809336
:1003B000870490938804A0938904B0938A048FE7FC
:1003C00094E00E94BE0197FF26C02FB7F894809159
:1003D0007B0490917C04A0917D04B0917E042FBF9A
:1003E00040918704509188046091890470918A0437
:1003F000841B950BA60BB70B40918304509184048A
:10040000609185047091860484179507A607B70745
:10041000B0F28FEF9FEF0895CF92DF92EF92FF92AD
:10042000CF930E94CC01FC0197FD4EC08D32910507
:1004300021F0C0970A9708F040C0C12CD12C76015A
:10044000C0E0E130F105D1F0ED32F105D9F1CF0195
:10045000C0970A9798F4AAE0B0E0A70196010E941D
:10046000900B6F01FF0FEE08FF08C60ED71EE81EA7
:10047000F91E80E3C81AD108E108F1088FE794E07B
:100480000E94AA010E94CC01FC01C0970A97C8F201
:10049000E130F105B1F2CC2341F0F094E094D09436
:1004A000C094C11CD11CE11CF11CC701B601CF9145
:1004B000FF90EF90DF90CF9008958FE794E00E9437
:1004C000AA01AFCFC1E0DACFC12CD12C7601EDCF9C
:1004D000FC01918D228D892F90E0805C9F4F821BC3
:1004E00091098F73992708958FE794E00E9468021D
:1004F00021E0892B09F420E0822F0895FC01A48DCE
:10050000A80FB92FB11DA35ABF4F2C91848D90E035
:1005100001968F739927848FA689B7892C93A08918
:10052000B1898C91837080648C93938D848D9813A2
:1005300006C00288F389E02D80818F7D8083089535
:10054000EF92FF920F931F93CF93DF93EC0181E023
:10055000888F9B8D8C8D98131AC0E889F9898081CA
:1005600085FF15C09FB7F894EE89FF896083E889FD
:10057000F98980818370806480839FBF81E090E0EF
:10058000DF91CF911F910F91FF90EF900895F62E7C
:100590000B8D10E00F5F1F4F0F731127E02E8C8D16
:1005A0008E110CC00FB607FCFACFE889F98980815B
:1005B00085FFF5CFCE010E947E02F1CFEB8DEC0FCF
:1005C000FD2FF11DE35AFF4FF0829FB7F8940B8F78
:1005D000EA89FB8980818062CFCFCF93DF93EC01E2
:1005E000888D8823B9F0AA89BB89E889F9898C911B
:1005F00085FD03C0808186FD0DC00FB607FCF7CFD7
:100600008C9185FFF2CF808185FFEDCFCE010E94D6
:100610007E02E9CFDF91CF91089580E090E0892BB1
:1006200029F00E94740281110E94000080E090E095
:10063000892B49F080E090E0892B29F00E9400008E
:1006400081110E94000080E090E0892B49F080E059
:1006500090E0892B29F00E94000081110E94000087
:1006600080E090E0892B49F080E090E0892B29F030
:100670000E94000081110C94000008958150823185
:1006800008F05AC0E82FF0E08827E65BFC4F8F4F58
:100690000C94CC0B6A036E035C03620366039C0339
:1006A000710377037B038103850389038F0393031E
:1006B0009C0397039D03A103809180008F77809313
:1006C00080000895809180008F7DF9CF8091800017
:1006D000877FF5CF84B58F7784BD089584B58F7DEE
:1006E000FBCF8091B0008F778093B0000895809108
:1006F000B0008F7DF9CF809190008F77809390002C
:100700000895809190008F7DF9CF80919000877F30
:10071000F5CF8091A0008F778093A00008958091FD
:10072000A0008F7DF9CF8091A000877FF5CF8091C9
:1007300020018F77809320010895809120018F7D83
:10074000F9CF80912001877FF5CF1F93CF93DF935F
:10075000282F30E0F901E25DFD4F8491F901E85165
:10076000FE4FD491F901EE55FE4FC491CC23A9F070
:10077000162F81110E943E03EC2FF0E0EE0FFF1FB9
:10078000E259FE4FA591B4918FB7F894EC911111F5
:1007900008C0D095DE23DC938FBFDF91CF911F91EE
:1007A0000895DE2BF8CFCF93DF9390E0FC01E85162
:1007B000FE4F24918E559E4FFC0184918823D1F0E9
:1007C00090E0880F991FFC01EC5AFE4FA591B4915F
:1007D000FC01E259FE4FC591D49161110EC09FB743
:1007E000F8948C91E22FE0958E238C932881E2235C
:1007F000E8839FBFDF91CF9108958FB7F894EC9174
:10080000E22BEC938FBFF6CF3FB7F89480916D0445
:1008100090916E04A0916F04B091700426B5A89BCE
:1008200005C02F3F19F00196A11DB11D3FBFBA2F82
:10083000A92F982F8827BC01CD01620F711D811D42
:10084000911D42E0660F771F881F991F4A95D1F7C7
:1008500008958F929F92AF92BF92CF92DF92EF92C4
:10086000FF924B015C010E9404046B017C010E9419
:1008700004046C197D098E099F09683E7340810547
:100880009105A8F321E0821A9108A108B10888EE29
:10089000C80E83E0D81EE11CF11C81149104A10450
:1008A000B10429F7FF90EF90DF90CF90BF90AF9009
:1008B0009F908F900895089590E080E00895CF93E1
:1008C000C82F68EE73E080E090E00E94290461E0A8
:1008D0008C2F0E94A50368EE73E080E090E00E94F8
:1008E000290460E08C2F0E94A50368EE73E080E08D
:1008F00090E0CF910C942904FC0101900020E9F7CD
:100900003197AF01481B590BBC018FE794E00C9461
:100910006E01CF93DF930E947C04EC0185E292E0AC
:100920000E947C048C0F9D1FDF91CF9108950C9441
:100930007C048F929F92AF92BF92CF92DF92EF9200
:10094000FF920F931F93CF93DF93CDB7DEB7A1979D
:100950000FB6F894DEBF0FBECDBF6C01990FEE0845
:10096000FF08F7FE47C06DE28FE794E00E94A00207
:100970008C0122273327A9012C193D094E095F0953
:1009800019A2CE0181967C019AE0892E912CA12C8E
:10099000B12CCA01B901A50194010E94AA0B605DA6
:1009A000F70162937F01211531054105510589F752
:1009B00090E080E0309719F0CF010E947C04080F8E
:1009C000191F85E292E00E947C04800F911FA1967E
:1009D0000FB6F894DEBF0FBECDBFDF91CF911F9150
:1009E0000F91FF90EF90DF90CF90BF90AF909F90CE
:1009F0008F900895A701960119A28E010F5D1F4FD8
:100A00008AE0C82ED12CE12CF12CCA01B901A70132
:100A100096010E94AA0B605DF80162938F01211577
:100A200031054105510589F7309729F0CF010E9422
:100A30007C048C01C6CF10E000E0C3CFCF93DF93DE
:100A4000EC0160E08E810E94A50361E08E810E942E
:100A5000A50360E08E810E94A5038BE891E00197D9
:100A6000F1F7DF91CF910895CF92DF92EF92FF924D
:100A70000F931F93CF93DF936C017C0187E0E80E07
:100A8000F11CD0E0C0E0062F10E0B8010C2E02C02F
:100A9000759567950A94E2F76170F70181917F017E
:100AA0000E94A5032196C430D10579F7C601DF91D4
:100AB000CF911F910F91FF90EF90DF90CF900C940A
:100AC0001E05CF92DF92EF92FF920F931F93CF9369
:100AD000DF93EC01F62E642F8C810E94A5038D819B
:100AE0008F3F19F060E00E94A5030F2D10E08F8565
:100AF00084FF25C06E0187E0C80ED11CF12CE12CCB
:100B0000B8010E2C02C0759567950A94E2F76170E2
:100B1000F60181916F010E94A503FFEFEF1AFF0A12
:100B200088E0E816F10461F7CE01DF91CF911F91C3
:100B30000F91FF90EF90DF90CF900C941E05B801BD
:100B400084E0759567958A95E1F7CE010E9434059A
:100B50006F2DCE01DF91CF911F910F91FF90EF90FC
:100B6000DF90CF900C94340540E0682F8CE195E045
:100B70000C946105CF93DF93823029F490912B057B
:100B8000986090932B0580932F051092300580E498
:100B90008093310580E18093320580E580933305B1
:100BA00061E0809120050E94D303809121058F3F51
:100BB00019F061E00E94D30361E0809122050E9458
:100BC000D303CCE1D5E09E012C51354080912B051B
:100BD00084FD0BC084E090E021962817390744F487
:100BE00061E08E810E94D303EECF88E090E0F4CFE5
:100BF0008BE39DE00197F1F760E0809120050E9472
:100C0000A50360E0809122050E94A5038091210543
:100C10008F3F19F060E00E94A50380912B0584FDB1
:100C200039C063E08CE195E00E943405CBE4D6E462
:100C3000CE010197F1F763E08CE195E00E94340565
:100C40002197F1F763E08CE195E00E94340583E59C
:100C500092E00197F1F762E08CE195E00E943405A3
:100C600080912B0580620E94B40584E080932C055E
:100C70008CE00E94B40581E00E94B4058BE39FE103
:100C80000197F1F782E080932D0586E0DF91CF9107
:100C90000C94B40580620E94B4058BE496E401973D
:100CA000F1F780912B0580620E94B40583E592E004
:100CB0000197F1F780912B0580620E94B405D0CF97
:100CC000CF93DF93EC0181E00E94B4058BE39FE1B9
:100CD0000197F1F7E1E080912F058111E0E0E195C6
:100CE000F0E0E45EFA4F848980680E94B4054C818C
:100CF0005D81688179818CE195E0DF91CF910C94E1
:100D00006E0141E00E94610581E090E00895FC01E0
:100D100080819181009711F00C94700C0895EF92EE
:100D2000FF920F931F93CF93DF93EC017B01198206
:100D300018821B821A821D821C82FB0101900020F6
:100D4000E9F731978F01061B170BB8016F5F7F4FD3
:100D500090E080E00E94F90C0097B9F099838883B5
:100D60001B830A832C813D81232B11F4FC0110820B
:100D70001D830C83B70188819981DF91CF911F91E9
:100D80000F91FF90EF900C94E30D8881998100976B
:100D900011F00E94700C198218821D821C821B8225
:100DA0001A82DF91CF911F910F91FF90EF900895DC
:100DB0001F920F920FB60F9211240BB60F922F9322
:100DC0003F934F935F936F937F938F939F93AF93D3
:100DD000BF93EF93FF938FE794E00E947E02FF9111
:100DE000EF91BF91AF919F918F917F916F915F91A3
:100DF0004F913F912F910F900BBE0F900FBE0F9010
:100E00001F9018951F920F920FB60F9211240BB6D8
:100E10000F922F938F939F93EF93FF93E0918F0403
:100E2000F09190048081E0919504F091960482FD08
:100E30001DC09081809198048F5F8F7320919904D9
:100E4000821741F0E0919804F0E0E158FB4F958F54
:100E500080939804FF91EF919F918F912F910F9024
:100E60000BBE0F900FBE0F901F9018958081F2CF90
:100E70001F920F920FB60F9211242F933F938F93CF
:100E80009F93AF93BF9380917B0490917C04A0913A
:100E90007D04B0917E0430916C0423E0230F2D3744
:100EA00058F50196A11DB11D20936C0480937B041D
:100EB00090937C04A0937D04B0937E0480916D0494
:100EC00090916E04A0916F04B09170040196A11DE1
:100ED000B11D80936D0490936E04A0936F04B09342
:100EE0007004BF91AF919F918F913F912F910F907F
:100EF0000FBE0F901F90189526E8230F0296A11D94
:100F0000B11DD2CFEFE7F4E01382128288EE93E0B6
:100F1000A0E0B0E084839583A683B7838BE092E062
:100F20009183808385EC90E09587848784EC90E0C2
:100F30009787868780EC90E0918B808B81EC90E0A6
:100F4000938B828B82EC90E0958B848B86EC90E087
:100F5000978B868B118E128E138E148EECE1F5E03A
:100F6000138212828DE192E09183808382E28483F6
:100F700083E2858384E2868386E2878387E28087B3
:100F800088E2818789E282878AE283878BE284878D
:100F90008CE285878DE2868780E1878781E00C94EB
:100FA000BA05CF93DF9300D000D0CDB7DEB77894E9
:100FB00084B5826084BD84B5816084BD85B582605E
:100FC00085BD85B5816085BD80916E00816080930F
:100FD0006E00109281008091810082608093810078
:100FE0008091810081608093810080918000816088
:100FF000809380008091B10084608093B1008091E3
:10100000B00081608093B0008091910082608093F5
:101010009100809191008160809391008091900077
:101020008160809390008091A10082608093A100F4
:101030008091A10081608093A1008091A0008160D7
:101040008093A00080912101826080932101809192
:101050002101816080932101809120018160809332
:10106000200180917A00846080937A0080917A00D8
:10107000826080937A0080917A00816080937A0008
:1010800080917A00806880937A001092C100E0918C
:101090008F04F091900482E08083E0918B04F091C2
:1010A0008C041082E0918D04F0918E048FEC80838B
:1010B00010929704E0919304F091940486E0808369
:1010C000E0919104F0919204808180618083E091AD
:1010D0009104F0919204808188608083E091910472
:1010E000F0919204808180688083E0919104F09176
:1010F000920480818F7D808382E00E94BA0560E047
:1011000086E30E94D30361E085E40E94D30361E09B
:1011100084E40E94D30361E083E40E94D30361E08E
:1011200082E40E94D30361E081E40E94D30361E082
:1011300080E40E94D30361E08FE30E94D30361E067
:101140008EE30E94D30361E08AE30E94D30361E04F
:101150008BE30E94D30304E612E09EE1E92E92E0C5
:10116000F92E28EDC22E21E0D22E68E272E0CE01E7
:1011700001960E948F06CE0101960E946006CE0164
:1011800001960E94870664E670E080E090E00E948D
:101190002904F8018491F701A490F601B490BB20D2
:1011A00009F4AFC281110E943E03EB2DF0E0EE0F77
:1011B000FF1FE857FE4FA591B4918C91A82209F426
:1011C000A0C280910002882309F49BC21092000201
:1011D00065E372E0CE0101960E948F06CE01019672
:1011E0000E946006CE0101960E94870668EE73E0B9
:1011F00080E090E00E9429040E940C027093720427
:101200006093710468EE73E080E090E00E9429042E
:101210008091710490917204892BD9F468EE73E087
:1012200080E090E00E9429046AE472E0CE01019619
:101230000E948F06CE0101960E946006CE010196A3
:101240000E9487060E940C027093720460937104DE
:10125000DFCF84E592E00E94970480917104909121
:1012600072040E94990480E692E00E94970468EE5E
:1012700073E080E090E00E942904809171049091D5
:10128000720484319105DCF58CE692E00E948904B9
:1012900063E772E0CE0101960E948F06CE010196AF
:1012A0000E946006CE0101960E94870668EE73E0F8
:1012B00080E090E00E9429046BEA72E0CE01019682
:1012C0000E948F06CE0101960E946006CE01019613
:1012D0000E9487060E940C0270937404609373044A
:1012E00068EE73E080E090E00E942904809173042E
:1012F00090917404892B79F560EC72E0DFCF4F9701
:10130000B4F08DE792E00E94890464E872E0CE01B7
:1013100001960E948F06CE0101960E946006CE01C2
:1013200001960E94870684E40E945F04C5CF85E988
:1013300092E00E9489046BE972E0CE0101960E945E
:101340008F06CE0101960E946006CE0101960E9492
:1013500087068FE3E9CF8AEC92E00E9497048091A0
:101360007304909174040E94990486ED92E00E94A7
:101370009704809173049091740484319105DCF595
:101380008CE692E00E94890462EE72E0CE01019642
:101390000E948F06CE0101960E946006CE01019642
:1013A0000E94870668EE73E080E090E00E942904C6
:1013B0006FEF72E0CE0101960E948F06CE0101967A
:1013C0000E946006CE0101960E9487060E940C02D0
:1013D000709376046093750468EE73E080E090E0AB
:1013E0000E9429048091750490917604892B79F5E7
:1013F00068E173E0DFCF4F97B4F08DE792E00E9491
:1014000089046CEE72E0CE0101960E948F06CE0137
:1014100001960E946006CE0101960E94870685E42F
:101420000E945F04C5CF85E992E00E94890466EFBF
:1014300072E0CE0101960E948F06CE0101960E94B5
:101440006006CE0101960E94870680E4E9CF86E21D
:1014500093E00E94970480917504909176040E9415
:10146000990486E393E00E9497048091750490911B
:10147000760484319105DCF58CE692E00E948904C3
:1014800066E473E0CE0101960E948F06CE010196BC
:101490000E946006CE0101960E94870668EE73E006
:1014A00080E090E00E9429046FE673E0CE0101968F
:1014B0000E948F06CE0101960E946006CE01019621
:1014C0000E9487060E940C02709378046093770450
:1014D00068EE73E080E090E00E9429048091770438
:1014E00090917804892B79F568E873E0DFCF4F9706
:1014F000B4F08DE792E00E94890464E573E0CE01C8
:1015000001960E948F06CE0101960E946006CE01D0
:1015100001960E94870683E40E945F04C5CF85E997
:1015200092E00E94890462E673E0CE0101960E9477
:101530008F06CE0101960E946006CE0101960E94A0
:1015400087068EE3E9CF86E993E00E9497048091B5
:101550007704909178040E94990486EA93E00E94AF
:101560009704809177049091780484319105DCF59B
:101570008CE692E00E94890466EB73E0CE0101964E
:101580000E948F06CE0101960E946006CE01019650
:101590000E94870668EE73E080E090E00E942904D4
:1015A0006FED73E0CE0101960E948F06CE01019689
:1015B0000E946006CE0101960E9487060E940C02DE
:1015C00070937A046093790468EE73E080E090E0B1
:1015D0000E9429048091790490917A04892B79F5ED
:1015E0006AEF73E0DFCF4F97B4F08DE792E00E948F
:1015F000890464EC73E0CE0101960E948F06CE014F
:1016000001960E946006CE0101960E94870682E440
:101610000E945F04C5CF85E992E00E94890462EDD3
:1016200073E0CE0101960E948F06CE0101960E94C2
:101630006006CE0101960E9487068AE3E9CF8AE020
:1016400094E00E9497048091790490917A040E941A
:1016500099048CE194E00E94970480917904909120
:101660007A04843191050CF58CE692E00E9489049D
:101670006EE274E0CE0101960E948F06CE010196C3
:101680000E946006CE0101960E94870668EE73E014
:1016900080E090E00E94290464E670E080E090E041
:1016A0000E9429040E940D0360CD4F97B4F08DE78E
:1016B00092E00E9489046EE374E0CE0101960E94DC
:1016C0008F06CE0101960E946006CE0101960E940F
:1016D000870681E40E945F04DFCF85E992E00E94E3
:1016E00089046EE474E0CE0101960E948F06CE015B
:1016F00001960E946006CE0101960E9487068BE348
:10170000E9CF6DE574E0CE0101960E948F06CE010F
:1017100001960E946006CE0101960E948706BCCF0A
:101720000E949B0BA59F900DB49F900DA49F800DD0
:10173000911D11240895A29FB001B39FC001A39FE2
:10174000700D811D1124911DB29F700D811D1124FA
:10175000911D0895A1E21A2EAA1BBB1BFD010DC00D
:10176000AA1FBB1FEE1FFF1FA217B307E407F50751
:1017700020F0A21BB30BE40BF50B661F771F881F2D
:10178000991F1A9469F760957095809590959B01C3
:10179000AC01BD01CF010895EE0FFF1F881F8BBF65
:1017A0000790F691E02D19940F931F93CF93DF9339
:1017B0008230910510F482E090E0E0913605F091DE
:1017C000370530E020E0B0E0A0E0309799F4211533
:1017D000310509F44AC0281B390B24303105D8F5EE
:1017E0008A819B816115710589F1FB019383828355
:1017F000FE0111C0408151810281138148175907B0
:10180000E0F04817590799F4109761F012960C937D
:10181000129713961C933296CF01DF91CF911F91AF
:101820000F9108950093360510933705F4CF2115D5
:10183000310551F04217530738F0A901DB019A0135
:10184000BD01DF01F801C1CFEF01F9CF909337055A
:1018500080933605CDCFFE01E20FF31F8193919364
:101860002250310939832883D7CF20913405309114
:101870003505232B41F4209103023091040230936B
:101880003505209334052091010230910202211583
:10189000310541F42DB73EB7409105025091060243
:1018A000241B350BE0913405F0913505E217F30761
:1018B000A0F42E1B3F0B2817390778F0AC014E5FC0
:1018C0005F4F2417350748F04E0F5F1F50933505C3
:1018D00040933405819391939FCFF0E0E0E09CCF5B
:1018E000CF93DF930097E9F0FC01329713821282C5
:1018F000A0913605B0913705ED0130E020E010975A
:10190000A1F420813181820F931F20913405309101
:1019100035052817390709F061C0F0933505E093C4
:101920003405DF91CF910895EA01CE17DF07E8F57E
:101930004A815B819E0141155105B1F7E901FB83A5
:10194000EA8349915991C40FD51FEC17FD0761F443
:10195000808191810296840F951FE9019983888384
:10196000828193819B838A83F0E0E0E012968D91DF
:101970009C9113970097B9F52D913C911197CD014A
:101980000296820F931F2091340530913505281758
:10199000390739F6309751F5109237051092360510
:1019A000B0933505A0933405BCCFD383C283408167
:1019B0005181840F951FC817D90761F44E5F5F4F9F
:1019C00088819981480F591F518340838A819B8167
:1019D000938382832115310509F0B0CFF093370549
:1019E000E09336059ECFFD01DC01C0CF1382128249
:1019F000D7CF4F925F926F927F928F929F92AF92CA
:101A0000BF92CF92DF92EF92FF920F931F93CF93EB
:101A1000DF938C01009799F4CB01DF91CF911F9157
:101A20000F91FF90EF90DF90CF90BF90AF909F907D
:101A30008F907F906F905F904F900C94D40BFC012F
:101A4000E60FF71F9C0122503109E217F30708F453
:101A5000AEC0D901CD91DC911197C617D70720F1FF
:101A6000C530D10578F0CE0104978617970750F05E
:101A7000C61BD70B2297C193D1936D937C93CF0153
:101A80000E94700CC801DF91CF911F910F91FF90C0
:101A9000EF90DF90CF90BF90AF909F908F907F900E
:101AA0006F905F904F9008955B01AC1ABD0A4C0196
:101AB0008C0E9D1EA0913605B0913705512C412CFE
:101AC000F12CE12C109731F580913405909135057A
:101AD0008815990509F05CC04616570608F058C0ED
:101AE0008091010290910202009741F48DB79EB758
:101AF0004091050250910602841B950BE817F907E7
:101B000008F055C0F0933505E0933405F901718371
:101B10006083B8CF8D919C91119712966C9012971B
:101B200013967C901397A815B90559F56C0142E0FE
:101B3000C40ED11CCA14DB0420F1AC014A195B09A4
:101B4000DA011296159780F0628273825183408386
:101B5000D9016D937C93E114F10471F0D7011396D0
:101B6000FC93EE9312978ECF22968C0F9D1FF90156
:101B700091838083F301EFCFF0933705E09336052F
:101B800081CF4816590608F42C017D01D3019ACF64
:101B9000CB010E94D40B7C01009749F0AE01B80143
:101BA0000E94DA0DC8010E94700C87016BCF10E013
:101BB00000E068CFFB01DC0102C001900D924150B2
:101BC0005040D8F70895FB01DC0101900D920020F0
:081BD000E1F70895F894FFCF3E
:101BD8000100003805800000000000A0026E019B93
:101BE80001ED026802AA01BE010000000081066E34
:101BF800015C045B040D0A00416B696C6C6920543C
:101C08006172696D00504820766572697369206257
:101C1800656B6C656E69796F720054656B72617281
:101C2800205048005048204465676572693A200092
:101C3800504820447572756D753A20004E6F726D6C
:101C4800616C004E6F726D616C2050480059756B65
:101C580073656B0059554B53454B205048204445FC
:101C68004745524900447573756B00445553554BAD
:101C78002050482044454745524900456320766531
:101C8800726973692062656B6C656E69796F720041
:101C980054656B7261722045430045432064656753
:101CA8006572693A2000454320647572756D753A0E
:101CB80020004E6F726D616C2045430059756B733F
:101CC800656B20454300447573756B204543004E92
:101CD8004954524154207665726973692062656B74
:101CE8006C656E69796F720054656B726172204E13
:101CF8004954524154004E49545241542064656736
:101D08006572693A20004E495452415420647572F4
:101D1800756D753A20004E6F726D616C204E495496
:101D28005241540059554B53454B204E495452414A
:101D38005400447573756B204E49545241540053F6
:101D48004F4459554D207665726973692062656BF9
:101D58006C656E69796F720054656B72617220539D
:101D68004F4459554D00534F4459554D20646567AC
:101D78006572693A2000534F4459554D2064757275
:101D8800756D753A20004E6F726D616C20534F442B
:101D980059554D0059756B73656B20534F44595510
:101DA8004D00447573756B20534F4459554D004B86
:101DB800414C534959554D207665726973692062C3
:101DC800656B6C656E69796F720054656B726172D0
:101DD800204B414C534959554D004B414C5349599F
:101DE800554D206465676572693A20004B414C5334
:101DF8004959554D20447572756D753A20004E4FFE
:101E0800524D414C204B414C536959554D00595541
:101E18004B53454B204B414C536959554D00445544
:101E280053554B204B414C536959554D00427574DD
:0C1E38006F6E206261736D6164690000D0
:00000001FF
